:0400000096EF00F087
:10000800FACF34F0FBCF35F0E1CF36F0E2CF37F05E
:10001800D9CF38F0DACF39F0F3CF3AF0F4CF3BF05C
:1000280018EEE8F0F2A81BEF00F01DEF00F028EF43
:1000380000F0F2A222EF00F024EF00F028EF00F029
:100048005CEC04F085EF00F0F0A62DEF00F02FEF48
:1000580000F03AEF00F0F0A034EF00F036EF00F0D7
:100068003AEF00F058EC04F085EF00F0F0A83FEF0D
:1000780000F041EF00F04CEF00F0F0A246EF00F086
:1000880048EF00F04CEF00F054EC04F085EF00F07E
:10009800F2A651EF00F053EF00F05EEF00F0F2A08F
:1000A80058EF00F05AEF00F05EEF00F0E6EC03F0D6
:1000B80085EF00F0F2AC63EF00F065EF00F085EF3C
:1000C80000F09DA06AEF00F06CEF00F085EF00F003
:1000D8009EA071EF00F073EF00F085EF00F0ECECFC
:1000E80002F085EF00F085EF00F085EF00F085EF76
:1000F80000F085EF00F085EF00F085EF00F085EF68
:1001080000F03BC0F4FF3AC0F3FF39C0DAFF38C053
:10011800D9FF37C0E2FF36C0E1FF35C0FBFF34C06E
:10012800FAFF110015EEBEF0F7EF01F0B4EC03F0A2
:1001380001C072F002C073F04604D8A4A6EF00F024
:10014800A8EF00F00FEF01F0000E466E64C00DF04E
:1001580065C00EF066C00FF067C010F00D1E0E1ED1
:100168000F1E101E0D2A000E0E220F2210224050C4
:10017800116E4150126E136A146A111E121E131E5C
:10018800141E112A000E1222132214220001725189
:100198001124156E73511220166E000E1320176E5F
:1001A800000E1420186E0D501524196E0E501620CE
:1001B8001A6E0F5017201B6E105018201C6E6851B5
:1001C80019241D6E69511A201E6E6A511B201F6E5C
:1001D8006B511C20206E000E1D24606F000E1E2027
:1001E800616F010E1F20626F000E2020636F72C0C6
:1001F80064F073C065F0666B676B000E686F000E85
:10020800696F000E6A6F000E6B6F000E416E000E74
:10021800406E4FEF01F064C00DF065C00EF066C08F
:100228000FF067C010F00D1E0E1E0F1E101E0D2AB7
:10023800000E0E220F22102240C011F041C012F011
:10024800111E121E114A122A0001725111267351F1
:10025800122211500D24136E12500E20146E000E2F
:100268000F20156E000E1020166E68511324606F53
:1002780069511420616F6A511520626F6B51162005
:10028800636F60516427615165236251662363512E
:1002980067234FEF01F060C009F061C00AF062C047
:1002A8000BF063C00CF059EF01F012002D682E68B6
:1002B8002F6830689AEC00F009C029F00AC02AF0CB
:1002C8000BC02BF00CC02CF0000E316EE5EF01F0E6
:1002D8003150080D040EF326000EF422000EF3240C
:1002E800D96E030EF420DA6EDE04D8A47EEF01F096
:1002F80080EF01F0E2EF01F03150080D000EF32419
:10030800D96E030EF420DA6EDE50295CDE502A58CE
:10031800DE502B58DE502C58D8A095EF01F097EFFF
:1003280001F0A5EF01F03150080D000EF324D96E4D
:10033800030EF420DA6EDE6ADE6ADE6ADD6AE2EF58
:1003480001F03150080D000EF324D96E030EF4208D
:10035800DA6E2950DE5E2A50DE5A2B50DE5A2C50B7
:10036800DE5A3150080D000EF324D96E030EF42026
:10037800DA6E2D50DE5C2E50DE582F50DE5830508D
:10038800DE58D8B0CAEF01F0CCEF01F0E2EF01F08F
:100398003150080D000EF324D96E030EF420DA6EE6
:1003A800DECF2DF0DECF2EF0DECF2FF0DECF30F017
:1003B800E2EF01F0E2EF01F0E2EF01F0312AE5EFC0
:1003C80001F04550315CD8A0ECEF01F0EEEF01F000
:1003D8006CEF01F02DC021F02EC022F02FC023F0C9
:1003E80030C024F01200E60EF66E070EF76E000E0F
:1003F800F86E00EEBAF020EE14F00900F5CFEEFF2B
:10040800DD50D950FAE1C60EF66E080EF76E000EF2
:10041800F86E00EE54F020EE04F00900F5CFEEFF80
:10042800DD50D950FAE103EEA0F022EE1EF0EE6A9C
:10043800DD50D950FCE1DA50FAE103EE00F0A00EED
:10044800EE6AE806FDE102EE00F0E00EEE6AE8066C
:10045800FDE101EE00F0F50EEE6AE806FDE100EEC2
:1004680060F05A0EEE6AE806FDE100EE3CF00C0E74
:10047800EE6AE806FDE1000135EF04F0010E466E74
:100488005AEC01F021C054F022C055F023C056F0B8
:1004980024C057F0575006E15604D8B056EF02F082
:1004A80058EF02F073EF02F054C032F055C033F049
:1004B800321E331E324A332A32C040F033C041F074
:1004C80040C009F041C00AF074EC02F009C068F0BD
:1004D8000AC069F000016A6B6B6B73EF02F01200DF
:1004E800B4EC03F001C070F002C071F07EEF02F0CE
:1004F8007EEF02F0B4EC03F000017051011809E13D
:1005080071510218D8B48BEF02F08DEF02F07EEF34
:1005180002F08FEF02F009C001F00AC002F09EEC71
:1005280003F00001704B712B70C06EF071C06FF05A
:100538006EC009F06FC00AF0A2EF02F01200000EC0
:100548008D6E000E8C6E000E896E000E8A6E000E87
:100558008B6E050E966EFD0E926E93689468EE0E85
:10056800956EEC0E0F013B6FF80E3A6F280E396F3F
:10057800070E3C6F2F0E386F000E616EF18E628889
:10058800E40E0001DA6F080EDB6F40EC04F0F2862F
:100598001200F292F18CEA0E0001DA6F080EDB6F9E
:1005A8004FEC04F0F288F090F18AE80E0001DA6F5F
:1005B800080EDB6F4AEC04F0F086F092F188E60E44
:1005C8000001DA6F080EDB6F45EC04F0F0881200CA
:1005D8009E90D0C001F0D1C002F09EEC03F0000163
:1005E8006C4B6D2B6D5109E1140E6C5DD8A0FFEFBB
:1005F80002F001EF03F00AEF03F00BEC03F0000E3A
:1006080000016D6F000E6C6F0AEF03F0120000011D
:10061800CE51CF11D8B413EF03F015EF03F023EF49
:1006280003F002D821EF03F00500FA6ECE51FD6EFB
:10063800CF51FE6EFF6AFA50120023EF03F012004A
:100648000001D851D911D8B42CEF03F02EEF03F0E4
:100658003CEF03F002D83AEF03F00500FA6ED851E8
:10066800FD6ED951FE6EFF6AFA5012003CEF03F09E
:1006780012000001D251D311D8B445EF03F047EF6F
:1006880003F055EF03F002D853EF03F00500FA6EBC
:10069800D251FD6ED351FE6EFF6AFA50120055EF2B
:1006A80003F012000001D451D511D8B45EEF03F065
:1006B80060EF03F06EEF03F002D86CEF03F0050073
:1006C800FA6ED451FD6ED551FE6EFF6AFA501200D3
:1006D8006EEF03F012000001D651D711D8B477EFAE
:1006E80003F079EF03F087EF03F002D885EF03F00A
:1006F8000500FA6ED651FD6ED751FE6EFF6AFA50AC
:10070800120087EF03F01200000ECC6E3C0ECF6E85
:10071800B00ECE6ECECFD0F0CFCFD1F09E909D80D0
:10072800E20E0001DA6F080EDB6F3BEC04F0310ECD
:10073800CD6E1200CDA4A3EF03F0A5EF03F0ADEF4B
:1007480003F0CD900250CF6E01C0CEFFCD80B3EF45
:1007580003F00250CF6E01C0CEFFB3EF03F01200DA
:10076800CD82CECF08F0CFCF07F00750036E0850E8
:10077800056E03C006F005C001F006C002F0C5EF23
:1007880003F0120006EC04F026EC04F01EEC04F072
:1007980016EC04F070EC04F06FEC04F00EEC04F0CE
:1007A80060EC04F0120065EC04F0FDEC03F0A3EC3F
:1007B80002F02EEC04F0CDEC02F088EC03F0C6EC6D
:1007C80003F0120062A8EBEF03F0EDEF03F0F1EF96
:1007D80003F024EC03F0F1EF03F0F29012000000B4
:1007E8000000000000000000000000000087010079
:1007F8000000400E6D6E000E6C6E010E6E6E9590D0
:100808006C9A1200840E0001DA6F040EDB6F3BEC69
:1008180004F01200DA0E0001DA6F080EDB6F4FECFD
:1008280004F01200CE0E0001DA6F080EDB6F40EC08
:1008380004F01200D20E0001DA6F080EDB6F45ECEF
:1008480004F01200D60E0001DA6F080EDB6F4AECD6
:1008580004F01200700ED36E040ED26E000E9B6E62
:100868001200D7EC03F037EF04F096EF00F0DAC08F
:10087800CEF0DBC0CFF01200DAC0D8F0DBC0D9F080
:100888001200DAC0D2F0DBC0D3F01200DAC0D4F024
:10089800DBC0D5F01200DAC0D6F0DBC0D7F012000A
:1008A800F0923DEC03F01200F09056EC03F01200C9
:1008B800F2926FEC03F01200000E456E1200FFFF7B
:1008C800FFFFD09E12004784120047821200478023
:1008D8001200478A120012001200120012001200C1
:0408E80012001200E8
:10FE620000637C777BF26B6FC53001672BFED7ABEB
:10FE720076CA82C97DFA5947F0ADD4A2AF9CA4726A
:10FE8200C0B7FD9326363FF7CC34A5E5F171D831E2
:10FE92001504C723C31896059A071280E2EB27B20E
:10FEA2007509832C1A1B6E5AA0523BD6B329E32F35
:10FEB2008453D100ED20FCB15B6ACBBE394A4C5869
:10FEC200CFD0EFAAFB434D338545F9027F503C9FCB
:10FED200A851A3408F929D38F5BCB6DA2110FFF3EA
:10FEE200D2CD0C13EC5F974417C4A77E3D645D1915
:10FEF2007360814FDC222A908846EEB814DE5E0BD6
:10FF0200DBE0323A0A4906245CC2D3AC629195E442
:10FF120079E7C8376D8DD54EA96C56F4EA657AAE8D
:10FF220008BA78252E1CA6B4C6E8DD741F4BBD8B1B
:10FF32008A703EB5664803F60E613557B986C11D13
:10FF42009EE1F8981169D98E949B1E87E9CE5528B7
:10FF5200DF8CA1890DBFE6426841992D0FB054BBD9
:10FF6200160101010101010100DFCEC6C2BEBCF1D2
:10FF7200FE33333373F2F2F238080A0E1A31583C68
:10FF82000801020102030201070707070707080C1D
:10FF92000B0A090807070A070401FEFB140E0B08E7
:10FFA20005020A402700D8B9D11901502E010000DC
:10FFB200000001FF18C7D41901502E0100000000F3
:10FFC20001FF58D4D71901502E010000000001FF93
:10FFD200A027BE3301502E010000000001FFE034D3
:10FFE200C13301502E010000000001FF2042C43342
:0EFFF20001502E010000000001FFC194C1006B
:020000040020DA
:08000000FFFFFFFFFFFFFFFF00
:020000040030CA
:0E000000FF281F3CFFBF85FF0FC00FE00F4021
:00000001FF
